:100000000C942A001895000018950000189500001F
:10001000189500001895000018950000189500002C
:10002000189500001895000018950000189500001C
:10003000189500000C94A006189500001895000073
:1000400018950000189500001895000018950000FC
:10005000189500008FE58DBFC0E4E8E34E2E88E0E0
:100060008EBFD8E0F8E05F2EEEEFF7E0A0E6B0E05C
:10007000A89584B7082E877F84BF88E1992781BD22
:1000800091BD88278D933197E9F787E489B980E09E
:1000900080BD88E18AB90E9404086624E8EBF0E09C
:1000A00088E40E94520858E0C895802D0E944C08B0
:1000B00031965A95C9F704C01F1F1F1F1F1F1F1F0E
:1000C00086E886B980E487B9379A8FEF87BB8D9A27
:1000D0008E9A8F9A80E088BB959896989798E0E0E2
:1000E000F0E0A0ECB0E00E94640CE2E0F0E0A2ECF2
:1000F000B0E00E94640CA0ECB0E00D911C910130C6
:1001000050E015070CF402C00C948E0089E190E0D9
:10011000A0ECB0E08D939C930C949400E0E0F0E0B0
:10012000A0ECB0E00E94640CA2ECB0E00D911C9138
:10013000013050E015070CF402C00C94A70082E3D4
:1001400090E0A2ECB0E08D939C930C94AD00E2E0C3
:10015000F0E0A2ECB0E00E94640C0E94E9078CE0A1
:100160000E9452088FE711E00E94F807E2EFFBE1DE
:100170000E94E207A0E2B8E0E0ECF0E00E94C00BD1
:100180000E94DA078FEB11E00E94F807EEEFFBE127
:100190000E94E207A0E2B8E0E2ECF0E00E94C00BAF
:1001A0000E94DA07E1E0F0E00E94FB070E94E90705
:1001B0008CE00E9452088FE711E00E94F807EAE005
:1001C000FCE10E94E207A0EDB0E088278C9381E07B
:1001D00090E0A1EEB0E08D939C93A1EEB0E00D9184
:1001E0001C91003150E015071CF011F00C94140123
:1001F00081E0A0EDB0E08F930E94A1078F918D93D5
:1002000088278C938FEB11E00E94F807A0EDB0E0F7
:100210000E94DC07E1E0F0E00E94FB07A1EEB0E005
:100220000E949A070C94ED0007B1007E006007B9A8
:100230000E947109A0E6B0E08D939C93E6EDFBE18E
:100240000E941E0BE0E6F0E0D190E080FF24002742
:100250000E94DC090E94830AEDE0F0E0A2E6B0E033
:100260000E94450CEAEDFBE10E941E0BE2E6F0E085
:100270000E94B8090E942D0AEDE0F0E0A6E6B0E089
:100280000E94450CE6E6F0E00E94BD09E6EDFBE1C8
:100290000E94150B0E942D0AEDE0F0E0A6E7B0E009
:1002A0000E94450CEEEDFBE10E941E0BE6E7F0E03C
:1002B0000E94B8090E94B40AEDE0F0E0A6E7B0E0C1
:1002C0000E94450CE2EEFBE10E941E0BE6E7F0E027
:1002D0000E94B8090E94830AEDE0F0E0A6E7B0E0D2
:1002E0000E94450CAAE6B0E0E6EEFBE10E94480B56
:1002F000EAE6F0E00E94BD09EEEDFBE10E94150B7D
:100300000E942D0AEDE0F0E0AAE6B0E00E94450C64
:10031000EAE6F0E00E94BD09EAEEFBE10E94150B5F
:100320000E94830AEDE0F0E0AAE6B0E00E94450CEE
:10033000EAE6F0E00E94BD09E6E7F0E00E94B809B5
:100340000E942D0AEDE0F0E0A2E7B0E00E94450C2B
:10035000E2E7F0E00E94200DEDE0F0E00E947A0973
:10036000A6E8B0E0EE0C000FE794DD92EC920E945C
:10037000E9078CE00E9452088FE711E00E94F8071D
:10038000E2E1FCE10E94E207A0E2B8E0E6E8F0E08A
:100390000E94C00B0E94DA07E1E0F0E00E94FB0738
:1003A000979A95989698C69AC79880E090E0A4ECA2
:1003B000B0E08D939C9380E090E0A6ECB0E08D934C
:1003C0009C9381E090E0ACECB0E08D939C9381E055
:1003D00090E0AEECB0E08D939C930E94E9078CE036
:1003E0000E9452088FE712E00E94F807E8E1FCE162
:1003F0000E94E2078FEB11E00E94F807E8E2FCE1BF
:100400000E94E207E1E0F0E00E94FB07ACECB0E004
:100410000D911C91013050E0150711F00C9404036C
:1004200081E090E0A8ECB0E08D939C93A8ECB0E064
:100430000D911C910C3350E015071CF011F00C9439
:10044000020380E090E0A6ECB0E08D939C9307B1AE
:10045000007E006007B90E947109A0E6B0E08D93AC
:100460009C93E6EDFBE10E941E0BE0E6F0E0D190EC
:10047000E080FF2400270E94DC090E94830AEDE04F
:10048000F0E0A2E6B0E00E94450CEAEDFBE10E943C
:100490001E0BE2E6F0E00E94B8090E942D0AEDE092
:1004A000F0E0A6E6B0E00E94450CE6E6F0E00E942F
:1004B000BD09E6EDFBE10E94150B0E942D0AEDE05F
:1004C000F0E0A6E7B0E00E94450CEEEDFBE10E94F3
:1004D0001E0BE6E7F0E00E94B8090E94B40AEDE0C6
:1004E000F0E0A6E7B0E00E94450CE2EEFBE10E94DE
:1004F0001E0BE6E7F0E00E94B8090E94830AEDE0D7
:10050000F0E0A6E7B0E00E94450CE2E7F0E00E94D0
:10051000BD09E6E7F0E00E94B8090E942D0AEDE06F
:10052000F0E0AAE7B0E00E94450CEAE7F0E00E94A4
:10053000BD09EAEEFBE10E94150B0E942D0AEDE0D9
:10054000F0E0AEE7B0E00E94450CA2E8B0E0EEEECD
:10055000FBE10E94480BE2E8F0E00E94BD09EEE7F3
:10056000F0E00E94B8090E94C00DEDE0F0E0AEE6B8
:10057000B0E00E94450CA0E2B8E0AF93BF93E6E67E
:10058000F0E00E94B8090E948E0811E002E0BF91DD
:10059000AF910E945D0BE0E2F8E0A8E8B0E00E94B5
:1005A000400CEEE6F0E00E94200DEDE0F0E00E944D
:1005B0007A09A6E8B0E0EE0C000FE794DD92EC9229
:1005C000C69AC798A4ECB0E00D911C9141E050E0B0
:1005D000040F151FA4ECB0E00D931C93A4ECB0E045
:1005E0008D919C91ACECB0E08D939C93579A78944C
:1005F000E1E0F0E00E94FB07A8ECB0E00E949A075F
:100600000C9416020C940304ACECB0E00D911C9118
:10061000003050E015071CF011F00C9411030C94FD
:10062000030481E090E0A8ECB0E08D939C93A8ECEB
:10063000B0E00D911C910C3350E015071CF011F047
:100640000C94030480E090E0A6ECB0E08D939C93C2
:1006500007B1007E006007B90E947109A0E6B0E012
:100660008D939C93E6EDFBE10E941E0BE0E6F0E02B
:10067000D190E080FF2400270E94DC090E94830AB9
:10068000EDE0F0E0A2E6B0E00E94450CEAEDFBE10F
:100690000E941E0BE2E6F0E00E94B8090E942D0ABB
:1006A000EDE0F0E0A6E6B0E00E94450CE6E6F0E002
:1006B0000E94BD09E6EDFBE10E94150B0E942D0A88
:1006C000EDE0F0E0A6E7B0E00E94450CEEEDFBE1C6
:1006D0000E941E0BE6E7F0E00E94B8090E94B40AEF
:1006E000EDE0F0E0A6E7B0E00E94450CE2EEFBE1B1
:1006F0000E941E0BE6E7F0E00E94B8090E94830A00
:10070000EDE0F0E0A6E7B0E00E94450CE2E7F0E0A3
:100710000E94BD09E6E7F0E00E94B8090E942D0A98
:10072000EDE0F0E0AAE7B0E00E94450CEAE7F0E077
:100730000E94BD09EAEEFBE10E94150B0E942D0A02
:10074000EDE0F0E0AEE7B0E00E94450CA2E8B0E0DA
:10075000EEEEFBE10E94480BE2E8F0E00E94BD09EA
:10076000EEE7F0E00E94B8090E94C00DEDE0F0E075
:10077000AEE6B0E00E94450CA0E2B8E0AF93BF93B4
:10078000E6E6F0E00E94B8090E948E0811E002E05F
:10079000BF91AF910E945D0BE0E2F8E0A8E8B0E005
:1007A0000E94400CEEE6F0E00E94200DEDE0F0E04B
:1007B0000E947A09A6E8B0E0EE0C000FE794DD9203
:1007C000EC92C69AC798A4ECB0E00D911C9141E060
:1007D00050E0040F151FA4ECB0E00D931C93A4ECA3
:1007E000B0E08D919C91ACECB0E08D939C93579AC6
:1007F0007894E1E0F0E00E94FB07A8ECB0E00E94F2
:100800009A070C941703ACECB0E00D911C910C33DB
:1008100050E015070CF002C00C94080581E090E050
:10082000ACECB0E08D939C9381E090E0AAECB0E05A
:100830008D939C93AAECB0E00D911C910A3550E089
:1008400015071CF011F00C94020580E090E0A4EC78
:10085000B0E08D939C9307B1007E006007B90E94C1
:100860007109A0E6B0E08D939C93E6EDFBE10E9458
:100870001E0BE0E6F0E0D190E080FF2400270E940C
:10088000DC090E94830AEDE0F0E0A2E6B0E00E94FD
:10089000450CEAEDFBE10E941E0BE2E6F0E00E944F
:1008A000B8090E942D0AEDE0F0E0A6E6B0E00E9453
:1008B000450CE6E6F0E00E94BD09E6EDFBE10E9492
:1008C000150B0E942D0AEDE0F0E0A6E7B0E00E94D3
:1008D000450CEEEDFBE10E941E0BE6E7F0E00E9406
:1008E000B8090E94B40AEDE0F0E0A6E7B0E00E948B
:1008F000450CE2EEFBE10E941E0BE6E7F0E00E94F1
:10090000B8090E94830AEDE0F0E0A6E7B0E00E949B
:10091000450CE2E7F0E00E94BD09E6E7F0E00E9446
:10092000B8090E942D0AEDE0F0E0AAE7B0E00E94CD
:10093000450CEAE7F0E00E94BD09EAEEFBE10E9407
:10094000150B0E942D0AEDE0F0E0AEE7B0E00E944A
:10095000450CA2E8B0E0EEEEFBE10E94480BE2E8B5
:10096000F0E00E94BD09EEE7F0E00E94B8090E94A5
:10097000C00DEDE0F0E0AEE6B0E00E94450CA0E274
:10098000B8E0AF93BF93E6E6F0E00E94B8090E949A
:100990008E0811E002E0BF91AF910E945D0BE0E292
:1009A000F8E0A8E8B0E00E94400CEEE6F0E00E941B
:1009B000200DEDE0F0E00E947A09A6E8B0E0EE0C30
:1009C000000FE794DD92EC92C698C79AA6ECB0E0CF
:1009D0000D911C9141E050E0040F151FA6ECB0E012
:1009E0000D931C93A6ECB0E08D919C91AEECB0E021
:1009F0008D939C93579A7894AAECB0E00E949A0742
:100A00000C941A04E1E0F0E00E94FB070C94090644
:100A1000AEECB0E00D911C91013050E015071CF0D8
:100A200011F00C9415050C940906AEECB0E08D9114
:100A30009C91AAECB0E08D939C93AAECB0E00D9150
:100A40001C910A3550E015071CF011F00C940506B6
:100A500080E090E0A4ECB0E08D939C9307B1007E21
:100A6000006007B90E947109A0E6B0E08D939C93E5
:100A7000E6EDFBE10E941E0BE0E6F0E0D190E080A5
:100A8000FF2400270E94DC090E94830AEDE0F0E0C9
:100A9000A2E6B0E00E94450CEAEDFBE10E941E0BCD
:100AA000E2E6F0E00E94B8090E942D0AEDE0F0E0D5
:100AB000A6E6B0E00E94450CE6E6F0E00E94BD0923
:100AC000E6EDFBE10E94150B0E942D0AEDE0F0E03F
:100AD000A6E7B0E00E94450CEEEDFBE10E941E0B84
:100AE000E6E7F0E00E94B8090E94B40AEDE0F0E009
:100AF000A6E7B0E00E94450CE2EEFBE10E941E0B6F
:100B0000E6E7F0E00E94B8090E94830AEDE0F0E019
:100B1000A6E7B0E00E94450CE2E7F0E00E94BD09C4
:100B2000E6E7F0E00E94B8090E942D0AEDE0F0E04F
:100B3000AAE7B0E00E94450CEAE7F0E00E94BD0998
:100B4000EAEEFBE10E94150B0E942D0AEDE0F0E0B9
:100B5000AEE7B0E00E94450CA2E8B0E0EEEEFBE1AB
:100B60000E94480BE2E8F0E00E94BD09EEE7F0E0E9
:100B70000E94B8090E94C00DEDE0F0E0AEE6B0E0E2
:100B80000E94450CA0E2B8E0AF93BF93E6E6F0E028
:100B90000E94B8090E948E0811E002E0BF91AF9157
:100BA0000E945D0BE0E2F8E0A8E8B0E00E94400C93
:100BB000EEE6F0E00E94200DEDE0F0E00E947A0900
:100BC000A6E8B0E0EE0C000FE794DD92EC92C69838
:100BD000C79AA6ECB0E00D911C9141E050E0040FE3
:100BE000151FA6ECB0E00D931C93A6ECB0E08D9120
:100BF0009C91AEECB0E08D939C93579A7894AAECBC
:100C0000B0E00E949A070C941D05E1E0F0E00E941C
:100C1000FB07AEECB0E00D911C910A3550E01507D2
:100C20000CF002C00C949E0681E090E0AEECB0E0C7
:100C30008D939C930E94E9078CE00E9452088FE7F5
:100C400011E00E94F807EAE3FCE10E94E207A8E84D
:100C5000B0E00E94DC07E6E4FCE10E94E2078FEBD3
:100C600011E00E94F807EAE4FCE10E94E207A0E23A
:100C7000B8E0E6E8F0E00E94C00B0E94DA07A8E8BE
:100C8000B0E00E94CD070E94D307A0E2B8E0E6E8FA
:100C9000F0E00E94C00B0E94CB070E94D307E1E066
:100CA000F0E00E94FB07A0ECB0E04D915C91A6E85B
:100CB000B0E00D911C91041715071CF011F00C9475
:100CC0006606979A959896980C949E06A0ECB0E0CC
:100CD0004D915C91A6E8B0E00D911C9104171507A9
:100CE00080E014F009F081E08F93A2ECB0E04D9128
:100CF0005C91A6E8B0E00D911C910417150780E007
:100D00000CF481E09F918923882311F40C948D06C3
:100D10009798959A96980C949E06A2ECB0E04D9107
:100D20005C91A6E8B0E00D911C91041715070CF03A
:100D300002C00C949E0697989598969A0C94060279
:100D40000F921F922F923F924F925F927F92AF929B
:100D5000BF920F931F932F933F934F935F936F9384
:100D60007F938F939F93AF93BF93CF93DF93EF9333
:100D7000FF938FB78F935798F8940E94C307A3E906
:100D8000B0E08D9388278C930E94830CA3E9B0E098
:100D90003AE00E94AA070E94800CE3E9F0E0AFE984
:100DA000B0E090E20AE033E00E94880CAEE9B0E0E7
:100DB0002C93A3E9B0E0E6E5FCE10E946C0C11F095
:100DC0000C94EA06C09AC19AC298C39AC49AC5986C
:100DD0000C947E07A3E9B0E0E8E5FCE10E946C0C0E
:100DE00011F00C94FB06C09AC198C29AC39AC49899
:100DF000C59A0C947E07A3E9B0E0EAE5FCE10E9405
:100E00006C0C11F00C940C07C09AC19AC298C39A4A
:100E1000C498C59A0C947E07A3E9B0E0ECE5FCE128
:100E20000E946C0C11F00C941D07C09AC198C29AD4
:100E3000C39AC49AC5980C947E07A3E9B0E0EEE586
:100E4000FCE10E946C0C11F00C942E07C09AC19822
:100E5000C298C39AC498C5980C947E07AFE9B0E0D5
:100E6000E0E6FCE10E946C0C11F00C947E07AAEA0B
:100E7000B0E00E94110CA0ECB0E00D931C93E0E0F8
:100E8000F0E0A0ECB0E07BE70E94530CA5EBB0E0F3
:100E90000E94110CA2ECB0E00D931C93E2E0F0E094
:100EA000A2ECB0E07BE70E94530C0E94E9078CE0C3
:100EB0000E9452088FE711E00E94F807E2EFFBE181
:100EC0000E94E207A0E2B8E0E0ECF0E00E94C00B74
:100ED0000E94DA078FEB11E00E94F807EEEFFBE1CA
:100EE0000E94E207A0E2B8E0E2ECF0E00E94C00B52
:100EF0000E94DA07E1E0F0E00E94FB078F918FBFCC
:100F0000FF91EF91DF91CF91BF91AF919F918F9121
:100F10007F916F915F914F913F912F911F910F9111
:100F2000BF90AF907F905F904F903F902F901F9019
:100F30000F901895ED91FC91EF5FFF4FFC93EE93AE
:100F400008958F938D918823E9F711978F910895D4
:100F5000A0E2B8E01CD0883091F08D3039F0332316
:100F6000C9F38D933A9563FE21D0F4CF63FC04C09E
:100F70008DE01CD08AE01AD088278C93089516D073
:100F800011973395E7CF88275F9B089500C05F9B3B
:100F9000FECF8CB10895A0E2B8E08D91882311F0C6
:100FA00005D0FBCF08958DE001D08AE05D9BFECF98
:100FB0008CB90895A0E2B8E08D91882311F06CD02F
:100FC000FBCF08950E94110B802D11F065D0FACF50
:100FD000089581E067D015D080E864C08FE72130A4
:100FE00039F08FEB223021F08FE8233009F08FECBD
:100FF000810F0C94520888EE93E081D03197D9F795
:10100000089583E099277BC08AEF90E00E947F08D3
:10101000A79AA69AA59AA49AA39AA29AAA9885E0B2
:1010200090E00E947F08AB98AF98AE98AD9AAC9ACA
:10103000AB9AEF93FF93E1E1F1E00E947308FF9117
:10104000EF91AB9859D0AB9AEF93FF93E1E1F1E0C8
:101050000E947308FF91EF91AB984ED0AB9AEF933B
:10106000FF93E1E1F1E00E947308FF91EF91AB98EB
:1010700043D0AC98AB9AEF93FF93E1E1F1E00E948B
:101080007308FF91EF91AB9837D088E20BD08EE0D8
:1010900009D086E007D00895AA9A829505D004D099
:1010A0002BD00895AA98F9CF859510F4AC9A01C079
:1010B000AC98859510F4AD9A01C0AD98859510F463
:1010C000AE9A01C0AE98859510F4AF9A01C0AF9862
:1010D000AB9AEF93FF93E1E1F1E00E947308FF9177
:1010E000EF91AB9808953197F1F70895689462F8FD
:1010F0000895E89462F8089581E090E000C0EF93CD
:10110000FF93EE27E82BE92B31F0EDECFAE0319775
:10111000F1F70197D1F7FF91EF9108958DE207FD67
:101120008D938F2D881F802F881F8F57082F6894CD
:10113000F7F8802F87FF15C080958395082F80E3EF
:101140008D938EE28D93802F815228F080E38D93D2
:1011500099279C93089544270A95802F09F196D0EA
:101160001FC0805230F09EE49D9381E48D939D9347
:10117000EFCF4427DF92EF92FF920F938FE1801B16
:1011800011F0082F83D089D09EE29D930F91FF909C
:10119000EF90DF9044270395003209F4D7CF2BD08E
:1011A0003F93ECE2F2E138E12F2D1E2D0D2DFF24AF
:1011B000EE24DD244427000F111F221FA8F42F92D4
:1011C0003F920E94110B102C0E94110B202C0E94A8
:1011D000110B302C0E94110B3197410DD21CE31CD6
:1011E000F01C3F902F9001C0339631963A9519F735
:1011F0003F9107D0AFCFDD0CEE1CFF1C0A95D9F74D
:101200000895002719E058D08F93802B11F0039593
:1012100001C08F911A95B9F7802F882309F496CFD2
:101220008F91805D8D930A95D9F792CF0065CD1D82
:1012300080B2E60E40597307A0ACB90350D6DC016A
:10124000286BEE0094357700CA9A3B0065CD1D00EF
:10125000B2E60E0059730700ACB90300D6DC0100FA
:101260006BEE0000357700009A3B0000CD1D0000BA
:10127000E60E000073070000B9030000DC01000067
:10128000EE000000770000003B000000F694E794B9
:10129000D79447950A95D1F7089500270DD08F93DD
:1012A00003958F2D8E298D29842BC1F78F91805D19
:1012B0008D930A95D9F74CCF1F930F93002710E217
:1012C000440FDD1CEE1CFF1C001F802F9AE0890BD1
:1012D00010F0082F43951A9599F7802F0F911F91C1
:1012E0000895369A3699FECF369A3699FECF84B154
:1012F00095B108953DD0992711278F2D880F80E84B
:10130000F82A802F881F08F41FEF41F08F57082F0D
:1013100007FD04C0003240F08FEF01C08827982FEE
:10132000D82EE82EF82E09C08FE1801B082FF694E6
:10133000E794D79497950A95D1F7112351F090959A
:10134000D094E094F09481E0980F8827D81EE81E8E
:10135000F81E0F2DFE2CED2CD92E0895D094E0947C
:10136000F09491E0D90E9927E91EF91E1095089581
:10137000D190E190F19001910895219131914191A5
:1013800051910895102F90E8FF0C001F0927990F25
:10139000F7941078652F90E8440F551F5927990F3F
:1013A0004795607800380895FF0C90E89027110F5A
:1013B0009795F794092F0895102FBD2CDE2CEF2C54
:1013C000F02E11234AF4B094D094E094F0949FEF5F
:1013D000B91AD90AE90AF90A0EE1FF2039F4FE2CFC
:1013E000ED2CDB2CBB240850C2F76BC032F00A9501
:1013F000BB0CDD1CEE1CFF1CF9CF01D0D5CFB7FE16
:10140000089590E8B91611F4D0FE08959FEFD91A07
:10141000E90AF90A09F403950895DD92ED92FD9227
:101420000C930895502F2D2D3E2D4F2D612F089593
:101430002DEC3CEC4CEC5DE366270FC099DFF2DF4E
:10144000DD24EE2490E8F92E0FE307C096DF05C0F7
:101450002227332740E251E46627552351F1002328
:1014600081F190DF71F11627005850580894050B50
:1014700018F407FD03C025C007FD23C04695379526
:101480002795F694E794D79422D0FF202AF0DD0C1C
:10149000EE1CFF1C015073F09D2D969548F0DD2049
:1014A0003AF4EE202AF491E0D90E9927E91EF91EAC
:1014B0007BCF07C09FE7092FF92A9FEFD92EE92E8E
:1014C0000895DD24EE24FF240027112708959F921C
:1014D0009924AA24BB2488E1D216E306F40628F056
:1014E000D21AE30AF40A089401C08894991CAA1C31
:1014F000BB1CDD0CEE1CFF1C8A9571F7D92CEA2C65
:10150000FB2C9F9008953EDFE1F25038D1F2162770
:10151000005850580894051F12F418F4CBCF08F067
:10152000D0CF0AD0FF202AF0BB0CDD1CEE1CFF1C24
:101530003BCF0F5FFBF138CF9F929924AA24BB24A5
:10154000992788E1990CAA1CBB1CDD1CEE1CFF1C12
:1015500030F4920EA31EB41ED91EE91EF91E8A9500
:1015600089F79F90089509DF0DDF503829F090E842
:1015700069270CC00AF045D017CF5FE32227332735
:10158000442701C0FADEFEDE5038B1F3003899F38B
:10159000902F951B8BF312F434D0FACF983118F0BA
:1015A000222733274427983028F0232F342F44272D
:1015B0009850F9CF992329F04695379527959A9514
:1015C000D9F7912F962742F014D0B0F6F794E7940C
:1015D000D7940F5F8BF66ECF10D051F008F4BEDEBB
:1015E000FF2052F2DD0CEE1CFF1C0150CBF762CF46
:1015F00068CFD20EE31EF41E0895D21AE30AF40A4D
:101600000895DF92EF92FF920F931F93D22EE32E55
:10161000F42E052F162F6F915F914F913F912F91CF
:101620000895C895319600200895FBDFD02CF9DF8E
:10163000E02CF7DFF02CF5DF002D0895F2DF202DF0
:10164000F0DF302DEEDF402DECDF502D089507FB4D
:1016500000680EF40F7757FB50680EF45F7707FDB4
:1016600002C057FF05C0D216E306F4060507089529
:101670002D153E054F055007089500240D280E280E
:101680000F28002A0020089591E005C092E003C0D1
:1016900094E001C098E0C5DF0D929A95E1F70895B6
:1016A00099278D9193958823E1F7939511968C93C3
:1016B00011978E919A95D1F70895EA2FFB2F002468
:1016C0004C918D9103948E32E1F711248D911394F6
:1016D0008823E1F71A94101640F41197202F21194E
:1016E000239580E38D932A95E9F7113039F59927F1
:1016F000AE2FBF2FA00DB91FA00FB91F8C919C93C7
:10170000853308F421C031E08E918E32E9F38D32B9
:1017100041F0830F8A3319F480E331E001C03327AD
:101720008C93AE1789F7332341F0AE2FBF2FB8DF6C
:1017300081E34D3209F43196808308958827E00DC6
:10174000F81FE00FF81F80830895040F151F261F50
:10175000371F0895000F111F221F331F0895009592
:101760001095209530950F5F1F4F2F4F3F4F0895D5
:10177000019110810EC001911191219130810BC016
:101780000191108117FF05C03FEF2FEF04C00081CA
:1017900011272227332737FF03C0E1DF8DE28D9326
:1017A000CF93DF93CF92DF92EF92AA24BB24CC2475
:1017B000DD24EE2440E2CAE0DD2755E093E3888192
:1017C000890F87FD9F7083FD907F891B89935A95B0
:1017D000A9F7C0DFAA1CBB1CCC1CDD1CEE1C4A9563
:1017E00051F7E894EFE0FF2782910ED0EB30E0F75D
:1017F0001EF068948A2D0CD088278D93EF90DF908F
:10180000CF90DF91CF910895982F829501D0892FA5
:101810008F70805D26F0803309F4089568948D936D
:10182000089500271127222733271DD08A3328F453
:10183000803318F005D015D0F9CF0EF490CF08956D
:1018400080538F93402F512F622F732F83DF82DFBE
:101850007CDF80DF8F919927080F191F291F391FFF
:1018600008958D910895E894FCDF8032E9F38B327E
:10187000D9F38930C9F38D3211F46894F2CF089509
:1018800081918D938823E1F7089594E081918D9360
:101890009A95E1F70895E199FECFEEBBFFBB319633
:1018A000089591E001C092E07B3751F47FB7F8943E
:1018B000F2DF8D918DBBE29AE19A9A95C9F77FBFCD
:1018C0007727089591E001C092E0E5DFE09A8DB3BB
:1018D0008D939A95D1F70895689401C0E894AF93D9
:1018E000BF938D9116F0919103C00E94110B902D22
:1018F000891718F011F48823A1F7BF91AF910895CB
:10190000E89463F80895689463F80895689401C0B2
:10191000E8942227102F231709F4089526F40E9433
:10192000110B802D01C08191803069F0891731F051
:101930008D931A9599F723951D93ECCF01D0EACF9B
:10194000011709F408952395882713958D931A9507
:10195000E9F708950DDD16DD0395AAF087E1DD0CAA
:10196000EE1CFF1C8A9589F00A95CAF7FF205AF0F1
:1019700000240D280E280F28002039F00A95DD0CD0
:10198000EE1CFF1CDAF70A950FCD9BCD9ACDF0DC4B
:101990000023E2F372DE19F48DDD0068089585E01E
:1019A00002D1FF0C001F04830FE70695F7940ED1B8
:1019B0005068E9DD32DD139721E438E743ED5BEB56
:1019C000A2DD27E831ED43E15DE3D6D02EE03CE334
:1019D00043EC5DEBD1D022E83DEA4BE25EE3CCD0B4
:1019E0002CEE32E846E75EEBC7D020E931EE49EA5B
:1019F0005EE3C2D020E83FEE4FEF5EEBBDD024ECBB
:101A00003FEF4FE75FE3B8D008DD139784818F572E
:101A100099F02AF4D82E0FEFE02EF02E04C0D82E25
:101A2000EE24FF240027C8DC28E132E741E35FE32E
:101A30006ADDA3DC3497A7DDC3C09ADC80E003C075
:101A400097DC802F8078882321F0DF92EF92FF923D
:101A50000F938F9397DC802F839512F432DD1BC098
:101A600080958A95885E0AF415C088501AF40CD0C7
:101A7000D92210C0DD2488501AF406D0E9220AC009
:101A8000EE2402D0F92206C09FEF8770990F8A9545
:101A9000EAF7089589DC8F918823D9F35F914F91FC
:101AA0003F912F910F93D3DD0F9199F390F38ED047
:101AB000506869CDFFDC84C05BDC86E074D00583B0
:101AC0000F772BE33AEA48EB5FE31DDDA6DC1397C3
:101AD00041D028F4858188236AF7F3DC71C08F77C1
:101AE000848346DC349737DF98DC139723E632E4AF
:101AF00046E357EB08DD29ED37EA4AE159E33CD0EC
:101B000026E538E14EEA5AEB37D026E53CE84DE1D0
:101B10005CE332D02DEC37E543E65DEB2DD02DEEC6
:101B20003DEF45E75EE328D028E132E741E35FEB94
:101B300023D04CD028DD76DCDD24EE24FF24048184
:101B40008FE7080F0695F79488DC8581881F08F4D5
:101B500076DC36C017DC8827039512F48894089544
:101B600007301AF0812F08940895FF1C881F0A95EA
:101B7000E2F7812B8894089506DDFFDB3497C3CC10
:101B80007CDD81F00F930F772F933F934F935F93FB
:101B9000FFDE5F914F913F912F91B5DC8EDF8F91EA
:101BA0008078082B08950FB6F8944A925A92E42D43
:101BB000F52DA42DB52D480E8827581E0FBE08956B
:101BC0000FB6F894599049900FBE08955FE340E82E
:101BD0003327222708950000A04000C07F44000062
:101BE000803F000020410730164052B8F2416A821F
:101BF000F13F4261746173206D696E3D2000426166
:101C0000746173206D61783D20004C6F6164696E72
:101C10006700526F203D2000526F626F7420506544
:101C20006D616E74617500004B6172626F6E204D64
:101C30006F6E6F6B736964610000546567616E67F6
:101C4000616E3D2000002056000050504D20434F53
:101C500020203D2000004100420043004400450098
:021C6000590029
:00000001FF
